{
  "contractName": "Flashloan",
  "abi": [
    {
      "inputs": [
        {
          "internalType": "address",
          "name": "_executor",
          "type": "address"
        }
      ],
      "stateMutability": "nonpayable",
      "type": "constructor"
    },
    {
      "stateMutability": "payable",
      "type": "receive"
    },
    {
      "inputs": [
        {
          "internalType": "address",
          "name": "token0",
          "type": "address"
        },
        {
          "internalType": "address",
          "name": "token1",
          "type": "address"
        },
        {
          "internalType": "uint256",
          "name": "amount0",
          "type": "uint256"
        },
        {
          "internalType": "uint256",
          "name": "amount1",
          "type": "uint256"
        },
        {
          "internalType": "address",
          "name": "factoryOrigin",
          "type": "address"
        },
        {
          "internalType": "address",
          "name": "secondRouter",
          "type": "address"
        }
      ],
      "name": "startArb",
      "outputs": [],
      "stateMutability": "nonpayable",
      "type": "function"
    },
    {
      "inputs": [
        {
          "internalType": "address",
          "name": "_sender",
          "type": "address"
        },
        {
          "internalType": "uint256",
          "name": "_amount0",
          "type": "uint256"
        },
        {
          "internalType": "uint256",
          "name": "_amount1",
          "type": "uint256"
        },
        {
          "internalType": "bytes",
          "name": "_data",
          "type": "bytes"
        }
      ],
      "name": "uniswapV2Call",
      "outputs": [],
      "stateMutability": "nonpayable",
      "type": "function"
    },
    {
      "inputs": [
        {
          "internalType": "address",
          "name": "_sender",
          "type": "address"
        },
        {
          "internalType": "uint256",
          "name": "_amount0",
          "type": "uint256"
        },
        {
          "internalType": "uint256",
          "name": "_amount1",
          "type": "uint256"
        },
        {
          "internalType": "bytes",
          "name": "_data",
          "type": "bytes"
        }
      ],
      "name": "MeerkatCall",
      "outputs": [],
      "stateMutability": "nonpayable",
      "type": "function"
    },
    {
      "inputs": [
        {
          "internalType": "address",
          "name": "_sender",
          "type": "address"
        },
        {
          "internalType": "uint256",
          "name": "_amount0",
          "type": "uint256"
        },
        {
          "internalType": "uint256",
          "name": "_amount1",
          "type": "uint256"
        },
        {
          "internalType": "bytes",
          "name": "_data",
          "type": "bytes"
        }
      ],
      "name": "vvsCall",
      "outputs": [],
      "stateMutability": "nonpayable",
      "type": "function"
    },
    {
      "inputs": [
        {
          "internalType": "address",
          "name": "_sender",
          "type": "address"
        },
        {
          "internalType": "uint256",
          "name": "_amount0",
          "type": "uint256"
        },
        {
          "internalType": "uint256",
          "name": "_amount1",
          "type": "uint256"
        },
        {
          "internalType": "bytes",
          "name": "_data",
          "type": "bytes"
        }
      ],
      "name": "cougarCall",
      "outputs": [],
      "stateMutability": "nonpayable",
      "type": "function"
    },
    {
      "inputs": [
        {
          "internalType": "address",
          "name": "_token",
          "type": "address"
        }
      ],
      "name": "withdraw",
      "outputs": [],
      "stateMutability": "payable",
      "type": "function"
    }
  ],
  "bytecode": "0x608060405234801561001057600080fd5b50604051611a42380380611a428339818101604052602081101561003357600080fd5b8101908080519060200190929190505050336000806101000a81548173ffffffffffffffffffffffffffffffffffffffff021916908373ffffffffffffffffffffffffffffffffffffffff16021790555080600160006101000a81548173ffffffffffffffffffffffffffffffffffffffff021916908373ffffffffffffffffffffffffffffffffffffffff1602179055505061196d806100d56000396000f3fe6080604052600436106100595760003560e01c806310d1e85c1461006557806321d8d5771461011f57806338d7b3cb146101d957806351cff8d914610293578063c0aa89f2146102d7578063e02aa30f1461039c57610060565b3661006057005b600080fd5b34801561007157600080fd5b5061011d6004803603608081101561008857600080fd5b81019080803573ffffffffffffffffffffffffffffffffffffffff1690602001909291908035906020019092919080359060200190929190803590602001906401000000008111156100d957600080fd5b8201836020820111156100eb57600080fd5b8035906020019184600183028401116401000000008311171561010d57600080fd5b9091929391929390505050610456565b005b34801561012b57600080fd5b506101d76004803603608081101561014257600080fd5b81019080803573ffffffffffffffffffffffffffffffffffffffff16906020019092919080359060200190929190803590602001909291908035906020019064010000000081111561019357600080fd5b8201836020820111156101a557600080fd5b803590602001918460018302840111640100000000831117156101c757600080fd5b90919293919293905050506104ad565b005b3480156101e557600080fd5b50610291600480360360808110156101fc57600080fd5b81019080803573ffffffffffffffffffffffffffffffffffffffff16906020019092919080359060200190929190803590602001909291908035906020019064010000000081111561024d57600080fd5b82018360208201111561025f57600080fd5b8035906020019184600183028401116401000000008311171561028157600080fd5b9091929391929390505050610504565b005b6102d5600480360360208110156102a957600080fd5b81019080803573ffffffffffffffffffffffffffffffffffffffff16906020019092919050505061055b565b005b3480156102e357600080fd5b5061039a600480360360c08110156102fa57600080fd5b81019080803573ffffffffffffffffffffffffffffffffffffffff169060200190929190803573ffffffffffffffffffffffffffffffffffffffff1690602001909291908035906020019092919080359060200190929190803573ffffffffffffffffffffffffffffffffffffffff169060200190929190803573ffffffffffffffffffffffffffffffffffffffff1690602001909291905050506107c0565b005b3480156103a857600080fd5b50610454600480360360808110156103bf57600080fd5b81019080803573ffffffffffffffffffffffffffffffffffffffff16906020019092919080359060200190929190803590602001909291908035906020019064010000000081111561041057600080fd5b82018360208201111561042257600080fd5b8035906020019184600183028401116401000000008311171561044457600080fd5b90919293919293905050506109c5565b005b6104a685858585858080601f016020809104026020016040519081016040528093929190818152602001838380828437600081840152601f19601f82011690508083019250505050505050610a1c565b5050505050565b6104fd85858585858080601f016020809104026020016040519081016040528093929190818152602001838380828437600081840152601f19601f82011690508083019250505050505050610a1c565b5050505050565b61055485858585858080601f016020809104026020016040519081016040528093929190818152602001838380828437600081840152601f19601f82011690508083019250505050505050610a1c565b5050505050565b6000809054906101000a900473ffffffffffffffffffffffffffffffffffffffff1673ffffffffffffffffffffffffffffffffffffffff163373ffffffffffffffffffffffffffffffffffffffff16146105b457600080fd5b60008190508073ffffffffffffffffffffffffffffffffffffffff1663a9059cbb6000809054906101000a900473ffffffffffffffffffffffffffffffffffffffff168373ffffffffffffffffffffffffffffffffffffffff166370a08231306040518263ffffffff1660e01b8152600401808273ffffffffffffffffffffffffffffffffffffffff1673ffffffffffffffffffffffffffffffffffffffff16815260200191505060206040518083038186803b15801561067457600080fd5b505afa158015610688573d6000803e3d6000fd5b505050506040513d602081101561069e57600080fd5b81019080805190602001909291905050506040518363ffffffff1660e01b8152600401808373ffffffffffffffffffffffffffffffffffffffff1673ffffffffffffffffffffffffffffffffffffffff16815260200182815260200192505050602060405180830381600087803b15801561071857600080fd5b505af115801561072c573d6000803e3d6000fd5b505050506040513d602081101561074257600080fd5b8101908080519060200190929190505050506000809054906101000a900473ffffffffffffffffffffffffffffffffffffffff1673ffffffffffffffffffffffffffffffffffffffff166108fc479081150290604051600060405180830381858888f193505050501580156107bb573d6000803e3d6000fd5b505050565b600160009054906101000a900473ffffffffffffffffffffffffffffffffffffffff1673ffffffffffffffffffffffffffffffffffffffff163373ffffffffffffffffffffffffffffffffffffffff161461081a57600080fd5b600061082783888861106b565b90508073ffffffffffffffffffffffffffffffffffffffff1663022c0d9f8686308787604051602001808373ffffffffffffffffffffffffffffffffffffffff1673ffffffffffffffffffffffffffffffffffffffff1681526020018273ffffffffffffffffffffffffffffffffffffffff1673ffffffffffffffffffffffffffffffffffffffff168152602001925050506040516020818303038152906040526040518563ffffffff1660e01b8152600401808581526020018481526020018373ffffffffffffffffffffffffffffffffffffffff1673ffffffffffffffffffffffffffffffffffffffff16815260200180602001828103825283818151815260200191508051906020019080838360005b8381101561095557808201518184015260208101905061093a565b50505050905090810190601f1680156109825780820380516001836020036101000a031916815260200191505b5095505050505050600060405180830381600087803b1580156109a457600080fd5b505af11580156109b8573d6000803e3d6000fd5b5050505050505050505050565b610a1585858585858080601f016020809104026020016040519081016040528093929190818152602001838380828437600081840152601f19601f82011690508083019250505050505050610a1c565b5050505050565b600080828060200190516040811015610a3457600080fd5b81019080805190602001909291908051906020019092919050505081915080905080925081935050506060600267ffffffffffffffff81118015610a7757600080fd5b50604051908082528060200260200182016040528015610aa65781602001602082028036833780820191505090505b5090506000808714610ab85785610aba565b855b905060003373ffffffffffffffffffffffffffffffffffffffff16630dfe16816040518163ffffffff1660e01b815260040160206040518083038186803b158015610b0457600080fd5b505afa158015610b18573d6000803e3d6000fd5b505050506040513d6020811015610b2e57600080fd5b8101908080519060200190929190505050905060003373ffffffffffffffffffffffffffffffffffffffff1663d21220a76040518163ffffffff1660e01b815260040160206040518083038186803b158015610b8957600080fd5b505afa158015610b9d573d6000803e3d6000fd5b505050506040513d6020811015610bb357600080fd5b81019080805190602001909291905050509050610bd186838361106b565b73ffffffffffffffffffffffffffffffffffffffff163373ffffffffffffffffffffffffffffffffffffffff1614610c0857600080fd5b6000891480610c175750600088145b610c2057600080fd5b60008914610c2e5781610c30565b805b84600081518110610c3d57fe5b602002602001019073ffffffffffffffffffffffffffffffffffffffff16908173ffffffffffffffffffffffffffffffffffffffff168152505060008914610c855780610c87565b815b84600181518110610c9457fe5b602002602001019073ffffffffffffffffffffffffffffffffffffffff16908173ffffffffffffffffffffffffffffffffffffffff16815250506000808a14610cdd5782610cdf565b815b90508073ffffffffffffffffffffffffffffffffffffffff1663095ea7b387866040518363ffffffff1660e01b8152600401808373ffffffffffffffffffffffffffffffffffffffff1673ffffffffffffffffffffffffffffffffffffffff16815260200182815260200192505050602060405180830381600087803b158015610d6857600080fd5b505af1158015610d7c573d6000803e3d6000fd5b505050506040513d6020811015610d9257600080fd5b8101908080519060200190929190505050506000610db18886886111c6565b600081518110610dbd57fe5b6020026020010151905060008773ffffffffffffffffffffffffffffffffffffffff166338ed173987848a33620d2f006040518663ffffffff1660e01b815260040180868152602001858152602001806020018473ffffffffffffffffffffffffffffffffffffffff1673ffffffffffffffffffffffffffffffffffffffff168152602001838152602001828103825285818151815260200191508051906020019060200280838360005b83811015610e83578082015181840152602081019050610e68565b505050509050019650505050505050600060405180830381600087803b158015610eac57600080fd5b505af1158015610ec0573d6000803e3d6000fd5b505050506040513d6000823e3d601f19601f820116820180604052506020811015610eea57600080fd5b8101908080516040519392919084640100000000821115610f0a57600080fd5b83820191506020820185811115610f2057600080fd5b8251866020820283011164010000000082111715610f3d57600080fd5b8083526020830192505050908051906020019060200280838360005b83811015610f74578082015181840152602081019050610f59565b50505050905001604052505050600181518110610f8d57fe5b602002602001015190508273ffffffffffffffffffffffffffffffffffffffff1663a9059cbb328484036040518363ffffffff1660e01b8152600401808373ffffffffffffffffffffffffffffffffffffffff1673ffffffffffffffffffffffffffffffffffffffff16815260200182815260200192505050602060405180830381600087803b15801561102057600080fd5b505af1158015611034573d6000803e3d6000fd5b505050506040513d602081101561104a57600080fd5b81019080805190602001909291905050505050505050505050505050505050565b600080600061107a8585611346565b91509150858282604051602001808373ffffffffffffffffffffffffffffffffffffffff1673ffffffffffffffffffffffffffffffffffffffff1660601b81526014018273ffffffffffffffffffffffffffffffffffffffff1673ffffffffffffffffffffffffffffffffffffffff1660601b8152601401925050506040516020818303038152906040528051906020012060405160200180807fff000000000000000000000000000000000000000000000000000000000000008152506001018373ffffffffffffffffffffffffffffffffffffffff1673ffffffffffffffffffffffffffffffffffffffff1660601b8152601401828152602001807f96e8ac4277198ff8b6f785478aa9a39f403cb768dd02cbee326c3e7da348845f815250602001925050506040516020818303038152906040528051906020012060001c925050509392505050565b6060600282511015611240576040517f08c379a000000000000000000000000000000000000000000000000000000000815260040180806020018281038252601e8152602001807f556e697377617056324c6962726172793a20494e56414c49445f50415448000081525060200191505060405180910390fd5b815167ffffffffffffffff8111801561125857600080fd5b506040519080825280602002602001820160405280156112875781602001602082028036833780820191505090505b509050828160018351038151811061129b57fe5b6020026020010181815250506000600183510390505b600081111561133e576000806112f1878660018603815181106112d057fe5b60200260200101518786815181106112e457fe5b60200260200101516114bd565b9150915061131384848151811061130457fe5b602002602001015183836115e6565b84600185038151811061132257fe5b60200260200101818152505050508080600190039150506112b1565b509392505050565b6000808273ffffffffffffffffffffffffffffffffffffffff168473ffffffffffffffffffffffffffffffffffffffff1614156113ce576040517f08c379a00000000000000000000000000000000000000000000000000000000081526004018080602001828103825260258152602001806118eb6025913960400191505060405180910390fd5b8273ffffffffffffffffffffffffffffffffffffffff168473ffffffffffffffffffffffffffffffffffffffff161061140857828461140b565b83835b8092508193505050600073ffffffffffffffffffffffffffffffffffffffff168273ffffffffffffffffffffffffffffffffffffffff1614156114b6576040517f08c379a000000000000000000000000000000000000000000000000000000000815260040180806020018281038252601e8152602001807f556e697377617056324c6962726172793a205a45524f5f41444452455353000081525060200191505060405180910390fd5b9250929050565b60008060006114cc8585611346565b5090506000806114dd88888861106b565b73ffffffffffffffffffffffffffffffffffffffff16630902f1ac6040518163ffffffff1660e01b815260040160606040518083038186803b15801561152257600080fd5b505afa158015611536573d6000803e3d6000fd5b505050506040513d606081101561154c57600080fd5b81019080805190602001909291908051906020019092919080519060200190929190505050506dffffffffffffffffffffffffffff1691506dffffffffffffffffffffffffffff1691508273ffffffffffffffffffffffffffffffffffffffff168773ffffffffffffffffffffffffffffffffffffffff16146115d05780826115d3565b81815b8095508196505050505050935093915050565b6000808411611640576040517f08c379a000000000000000000000000000000000000000000000000000000000815260040180806020018281038252602c8152602001806118bf602c913960400191505060405180910390fd5b6000831180156116505750600082115b6116a5576040517f08c379a00000000000000000000000000000000000000000000000000000000081526004018080602001828103825260288152602001806119106028913960400191505060405180910390fd5b60006116ce6103e86116c0878761172390919063ffffffff16565b61172390919063ffffffff16565b905060006116f96103e56116eb88876117b890919063ffffffff16565b61172390919063ffffffff16565b9050611718600182848161170957fe5b0461183b90919063ffffffff16565b925050509392505050565b600080821480611740575082828385029250828161173d57fe5b04145b6117b2576040517f08c379a00000000000000000000000000000000000000000000000000000000081526004018080602001828103825260148152602001807f64732d6d6174682d6d756c2d6f766572666c6f7700000000000000000000000081525060200191505060405180910390fd5b92915050565b6000828284039150811115611835576040517f08c379a00000000000000000000000000000000000000000000000000000000081526004018080602001828103825260158152602001807f64732d6d6174682d7375622d756e646572666c6f77000000000000000000000081525060200191505060405180910390fd5b92915050565b60008282840191508110156118b8576040517f08c379a00000000000000000000000000000000000000000000000000000000081526004018080602001828103825260148152602001807f64732d6d6174682d6164642d6f766572666c6f7700000000000000000000000081525060200191505060405180910390fd5b9291505056fe556e697377617056324c6962726172793a20494e53554646494349454e545f4f55545055545f414d4f554e54556e697377617056324c6962726172793a204944454e544943414c5f414444524553534553556e697377617056324c6962726172793a20494e53554646494349454e545f4c4951554944495459a26469706673582212206e9a1484daff528420cb3dcdd8788e78e51814ea9477ddea7968ac9531bcbdae64736f6c63430006060033",
  "immutableReferences": {},
  "source": "pragma solidity 0.6.6;\n\nimport \"@uniswap/v2-core/contracts/interfaces/IUniswapV2Pair.sol\";\nimport \"@uniswap/v2-core/contracts/interfaces/IUniswapV2Factory.sol\";\nimport \"@uniswap/v2-core/contracts/interfaces/IUniswapV2ERC20.sol\";\nimport \"@uniswap/v2-periphery/contracts/libraries/UniswapV2Library.sol\";\nimport \"@uniswap/v2-periphery/contracts/interfaces/IUniswapV2Router01.sol\";\n// MeerkatCall\n// vvsCall\n// uniswapV2Call\n// cougarCall\n\ncontract Flashloan {\n    \n    address payable owner;\n    address executor;\n\n    constructor(address _executor) public {\n        owner = payable(msg.sender);\n        executor = _executor;\n    }\n\n    receive() external payable {}\n\n    function startArb(\n        address token0,\n        address token1,\n        uint amount0,\n        uint amount1,\n        address factoryOrigin,\n        address secondRouter\n    ) external {\n        require(msg.sender == executor);\n        address pairAddress = UniswapV2Library.pairFor(factoryOrigin, token0, token1);\n        IUniswapV2Pair(pairAddress).swap(\n            amount0,\n            amount1,\n            address(this),\n            bytes(abi.encode(factoryOrigin, secondRouter))\n        );\n    }\n\n    function uniswapV2Call(\n        address _sender,\n        uint _amount0,\n        uint _amount1,\n        bytes calldata _data\n    ) external {\n        handleCall(_sender, _amount0, _amount1, _data);\n    }\n\n    function MeerkatCall(\n        address _sender,\n        uint _amount0,\n        uint _amount1,\n        bytes calldata _data\n    ) external {\n        handleCall(_sender, _amount0, _amount1, _data);\n    }\n\n    function vvsCall(\n        address _sender,\n        uint _amount0,\n        uint _amount1,\n        bytes calldata _data\n    ) external {\n        handleCall(_sender, _amount0, _amount1, _data);\n    }\n\n    function cougarCall(\n        address _sender,\n        uint _amount0,\n        uint _amount1,\n        bytes calldata _data\n    ) external {\n        handleCall(_sender, _amount0, _amount1, _data);\n    }\n\n    function handleCall(\n        address _sender,\n        uint _amount0,\n        uint _amount1, \n        bytes memory _data\n        ) internal {\n            address factoryOrigin;\n            address secondRouter;\n            (factoryOrigin, secondRouter) = abi.decode(_data, (address, address));\n           \n            address[] memory path = new address[](2);\n            uint amountToken = _amount0 == 0 ? _amount1: _amount1;\n\n            address token0 = IUniswapV2Pair(msg.sender).token0(); // fetch the address of token0\n            address token1 = IUniswapV2Pair(msg.sender).token1(); // fetch the address of token1\n\n            require(msg.sender == UniswapV2Library.pairFor(factoryOrigin, token0, token1));\n            require(_amount0 == 0 || _amount1 == 0);\n\n            path[0] = _amount0 == 0 ? token1: token0;\n            path[1] = _amount0 == 0 ? token0: token1;\n\n            IUniswapV2ERC20 token = IUniswapV2ERC20(_amount0 == 0 ? token1: token0);\n            token.approve(secondRouter, amountToken);\n\n\n            uint amountRequired = UniswapV2Library.getAmountsIn(\n                factoryOrigin,\n                amountToken,\n                path\n            )[0];\n\n            uint amountReceived = IUniswapV2Router01(secondRouter).swapExactTokensForTokens(amountToken, amountRequired, path, msg.sender, 10 days)[1];\n            token.transfer(tx.origin, amountReceived - amountRequired);\n\n        }\n\n    function withdraw(address _token) public payable {\n        require(msg.sender == owner);\n        IUniswapV2ERC20 token = IUniswapV2ERC20(_token);\n        token.transfer(owner, token.balanceOf(address(this)));\n        owner.transfer(address(this).balance);\n    }\n}\n",
  "sourcePath": "/Users/owenwahlgren/code/truffle/flashloan/contracts/Flashloan.sol",
  "compiler": {
    "name": "solc",
    "version": "0.6.6+commit.6c089d02.Emscripten.clang"
  },
  "schemaVersion": "3.4.4",
  "updatedAt": "2022-06-02T21:25:54.664Z",
  "devdoc": {
    "methods": {}
  },
  "userdoc": {
    "methods": {}
  }
}